:100000000C9434000C9451000C9451000C94510049
:100010000C9451000C9451000C9451000C943F012D
:100020000C9451000C9451000C9451000C9451000C
:100030000C9451000C9451000C941A010C94510032
:100040000C9451000C9451000C9451000C945100EC
:100050000C9451000C9451000C9451000C945100DC
:100060000C9451000C94510011241FBECFEFD8E026
:10007000DEBFCDBF11E0A0E0B1E0E2EAF3E002C0F4
:1000800005900D92A031B107D9F711E0A0E1B1E0E0
:1000900001C01D92A531B107E1F70E9499000C94AF
:1000A000CF010C940000482F22E00DC0322F3F5F9B
:1000B000842F622F0E94C301992321F42093100101
:1000C00080E00895232F241788F32093100181E006
:1000D00008951F93182F6AE00E94C301E92FF0E0F2
:1000E000E050FF4F84E060810E9485011A30F8F0F3
:1000F000812F6AE00E94C3010E94C301E92FF0E052
:10010000E050FF4F83E060810E948501143678F053
:10011000812F64E60E94C3016AE00E94C301E92FB7
:10012000F0E0E050FF4F82E060810E9485011F9166
:1001300008951F930E9472010E94100180E06FEFEA
:100140000E94850111E03BC082E090E08130910582
:10015000E9F08130910538F08230910549F1833022
:100160009105A1F728C080E00E9491018823D9F36E
:1001700080E06FEF0E9485010E949C01182F10956E
:10018000812F0E94690081E090E0E0CF80E060E094
:100190000E94850168EE73E080E090E00E94E2003A
:1001A000812F0E945300813079F283E090E0CECF1E
:1001B00080E06EE702C080E067EE0E94850180E08B
:1001C00090E0C4CFEF92FF920F931F937B018C01BD
:1001D00020911101309112014091130150911401AD
:1001E0008091110190911201A0911301B09114011D
:1001F000821B930BA40BB50B8E159F05A007B107AF
:1002000078F3209111013091120140911301509126
:100210001401B901CA011F910F91FF90EF90089549
:1002200082E084BD93E095BD99EF97BD80936E0009
:10023000789408951F920F920FB60F9211248F9306
:100240009F93AF93BF938091110190911201A09160
:100250001301B09114010196A11DB11D80931101EC
:1002600090931201A0931301B0931401BF91AF9129
:100270009F918F910F900FBE0F901F9018951F9216
:100280000F920FB60F9211242F933F938F939F934A
:10029000EF93FF9380910F018F5F80930F01853063
:1002A00010F010920F01E0910F01F0E024E030E037
:1002B0002E1B3F0B81E090E002C0880F991F2A950A
:1002C000E2F7809585B9E65FFE4F80818BB9FF919B
:1002D000EF919F918F913F912F910F900FBE0F90B3
:1002E0001F9018958FE384B980E287B98FEF8AB9A0
:1002F00092E09093B00083E08093B10089EF809307
:10030000B3009093700078940895EAE0F1E0E80F6C
:10031000F11D60830895EAE0F1E0E80FF11D8081AE
:10032000089526B130E002C0359527958A95E2F709
:100330002095822F817008952D9A2D982D9A20E076
:1003400080E090E83499892B4598459A2F5F2830B2
:1003500011F09695F7CF08951F93182F0E949C01D6
:1003600021E030E0012E02C0220F331F0A94E2F791
:1003700090E02823392302C0359527951A95E2F796
:10038000822F1F910895991B79E004C0991F961739
:1003900008F0961B881F7A95C9F780950895F89400
:0203A000FFCF8D
:1003A20005DD46549C34245D041400FFFFFFFF0466
:00000001FF
